:020000040800F2
:10000000E81200204101000831150008CD12000857
:1000100000000000000000000000000000000000E0
:10002000000000000000000000000000EB190008C4
:100030000000000000000000FF000008491B00084D
:10004000530100080000000053010008530100089C
:100050005301000853010008530100085301000830
:10006000000000005301000853010008530100087C
:10007000530100085301000853010008000000006C
:10008000251C00085301000800000000530100086F
:1000900053010008530100085301000853010008F0
:1000A00053010008530100085301000853010008E0
:1000B000530100080348854600F0BAF8004800479D
:1000C00069240008E8120020084B196808682030ED
:1000D00080F30988022080F31488BFF36F8F3FBC40
:1000E000AE4608BC04BC62B61847000034000020CD
:1000F000EFF3108072B6704780F310887047EFF30B
:1001000009800E4B1A6820381060F0C044464D46F6
:1001100056465F46F0C008B572B602F0ABFD62B657
:100120000CBC116808681030F0C8A046A946B24659
:10013000BB4680F309882038F0C8184734000020F7
:100140000448804704480047FEE7FEE7FEE7FEE775
:10015000FEE7FEE7C91B0008B500000830B50B46F6
:10016000014600202022012409E00D46D5409D4291
:1001700005D31D469540491B254695404019154617
:10018000521E002DF1DC30BD10B5202A04DB0846DC
:10019000203AD040002110BD0B46D340D04020244F
:1001A000A21A91400843194610BD03460B439B0712
:1001B00003D009E008C9121F08C0042AFAD203E0DC
:1001C0000B780370401C491C521EF9D27047F0B5E1
:1001D0001FB40646002082B00546402401910090DD
:1001E0001BE0019922460F463046FFF7CDFF049AE7
:1001F000059B801A994110D310461946224600F0FB
:1002000029F8361A8F410197224601200021009FCC
:1002100000F020F838184D4100902046641E002858
:10022000DFDC019B00982946324607B0F0BD000094
:10023000064C0125064E05E0E36807CC2B430C3C39
:1002400098471034B442F7D3FFF738FF583200080C
:100250007832000810B5202A04DB0146203A91408C
:10026000002010BD914020239C1A0346E34019430F
:10027000904010BD70B50C46054601F0B3FAA0439E
:100280000146284601F052FE70BD0000F8B500237B
:100290008DE001249C40A44622407DD04C68022C75
:1002A00001D0122C0CD1DC08A40027183C6A5D0791
:1002B000ED0E0F26AE40B4430E69AE4026433E62BB
:1002C00005685E000324B4400F79A543BF07BF0F44
:1002D000B7402F4307604D68012D05D0022D03D094
:1002E000112D01D0122D0ED18568CF68A543B740DE
:1002F0002F43876047686546AF430D79ED06ED0FE4
:100300009D403D434560C568A5438C68B4402C437F
:10031000C4604C68E40049D5284CA56901263543E2
:10032000A561A4699D0834400094254CAD002F19A7
:10033000BC689D072E0F0F25B540AC430925ED067F
:10034000A84201D100250FE01E4DA84201D1012590
:100350000AE01D4DA84201D1022505E01B4DA8422F
:1003600001D1032500E00525B5402543BD60184CAB
:1003700025684E689543F60300D5154325606568EA
:100380004E689543B60300D515436560A5684E6871
:100390009543F60202D500E008E01543A560E56844
:1003A0004E689543B60200D51543E5605B1C0A68AC
:1003B0001446DC4000D06CE7F8BD0000001002409D
:1003C000000001400004004800080048000C0048FC
:1003D000000401400069084000D001207047002A55
:1003E00001D0816170478162704700000148006858
:1003F000704700001000002002480168491C01609D
:10040000704700001000002010B506480168102257
:1004100011430160002000F007F800F041F80020CF
:1004200010BD00000020024000B5014687B0002248
:10043000102000F061F8102000F054F81348C26951
:1004400002210A43C261C0690840059004A96846B8
:1004500000F060F900F080F90D49FFF77FFE0E49CA
:100460000C4A0A600D4A401ECA60486000200861BC
:100470008860084600F078FD002802D0012007B00F
:1004800000BD054800F08BFDF9E7000000100240B8
:1004900040420F0000040040B8010020E7030000C4
:1004A00008B50F48816901221143816181691140BA
:1004B0000091C26901040A43C261C0690022084078
:1004C00000901146501F00F017F803210022481F2A
:1004D00000F012F803210022081F00F00DF808BDFB
:1004E00000100240C106C90E012088400149086081
:1004F0007047000000E100E010B501F01BF810BDEE
:10050000F8B505460068354CC00352D5E0690026B1
:10051000C00007D4E16920040143E161E1690140C1
:10052000012600912E480168C90510D40168821582
:1005300011430160FFF75AFF074604E0FFF756FF3B
:10054000C01B642824D826480068C005F6D5206A58
:1005500003273F02384020D06968394081421CD0CF
:10056000206A226AB843012109040A432262226AEE
:100570008A4322622062C0070FD0FFF737FF009046
:1005800008E0FFF733FF0099411A1648814201D96C
:100590000320F8BD206A8007F3D5206A6968B84354
:1005A00008432062002E04D0E16901200007814346
:1005B000E1612878C00705D0206BA9688008800019
:1005C000084320632878800605D5206B10218843D6
:1005D000E968084320630020F8BD000000100240D5
:1005E0000070004088130000F8B5054644480E46E8
:1005F0000068C007C00FB0420AD2414801684908EC
:100600004900314301600068C007C00FB0425CD1AF
:1006100028783C4C800705D56068F0218843A9689C
:10062000084360602878C0073FD06868012813D06D
:100630002168022813D08907002946DA61688908F1
:10064000890001436160FFF7D1FE6968074601290F
:100650000DD0022917D024E021688903ECE7890135
:10066000EAE7FFF7C3FEC11B2748814217D860683D
:100670000007800F0128F4D117E0FFF7B7FEC11B78
:10068000214881420BD860680007800F0228F4D10E
:100690000BE0FFF7ABFEC11B1B48814201D90320D1
:1006A000F8BD60680007800FF3D115480168C907DD
:1006B000C90FB1420BD901684908490031430160B3
:1006C0000068C007C00FB04201D00120F8BD2878F3
:1006D000400706D56068072109028843E968084396
:1006E000606000F049F86168084A0906090F515C2A
:1006F000C840074908600020FFF796FE0020F8BDBB
:100700000020024000100240881300002032000840
:100710001400002010B5072202600A4A53689B07A4
:100720009B0F43605368F024234083605268072383
:100730001B021A40C26004480068C007C00F08606E
:1007400010BD000000100240002002400148006877
:1007500070470000140000200448054900684968FB
:10076000044A4905490F515CC840704714000020F5
:10077000001002403032000810B512A30FCB88B031
:100780006C460FC413A30FCB0FC416494A680C2044
:10079000134603401448042B0FD0082B0DD19302AD
:1007A0001B0F6C46E45CC96A04AB0907090F595C6E
:1007B000D20304D5FFF7D2FC604308B010BD0B484C
:1007C0006043FAE702030405060708090A0B0C0D4B
:1007D0000E0F10100102030405060708090A0B0C8E
:1007E0000D0E0F100010024000127A0000093D00AB
:1007F000FEB504460078D04DC00747D068680007B2
:10080000800F012807D068680007800F022809D1EF
:100810006868C00306D52868800337D5606800285B
:100820007ED033E0012062680004012A11D08100EB
:10083000002A01D0052A10D02A6882432A6028683D
:10084000884328606068002814D0FFF7CFFD064673
:100850000CE0296801432960F4E72A680A432A600A
:10086000F7E7FFF7C3FD801B64286FD82868800373
:10087000F7D50BE0FFF7BAFD064604E0FFF7B6FD3B
:10088000801B6428F1D828688003F7D420780126DB
:10089000800700283BDA68680007800F07D0686887
:1008A0000007800F022809D16868C00306D42868B1
:1008B000800715D5E068012832D111E0E0680028F2
:1008C000286815D030432860FFF790FD074604E004
:1008D000FFF78CFDC01B0228C7D828688007F7D512
:1008E0002868F82188432169C900084328600EE080
:1008F000400840002860FFF779FD074604E0FFF755
:1009000075FDC01B0228B0D828688007F7D420786E
:10091000000724D5E0690028686A10D0304300E061
:1009200008E16862FFF762FD074604E0FFF75EFD3D
:10093000C01B022899D8686A8007F7D50FE04008E5
:1009400040006862FFF752FD074605E09DE0FFF7B3
:100950004DFDC01B022888D8686A8007F7D420782C
:1009600004274007002860DA00200190E869C000F1
:1009700008D4E969B8060143E961E9690140012049
:10098000009101906D480168C90511D40168821574
:1009900011430160FFF72AFD009005E0FFF726FDF7
:1009A0000099401A642870D864480068C005F5D5DD
:1009B000A06801280AD0002801D0052810D0286A94
:1009C000400840002862286AB84301E0286A3043A2
:1009D0002862A068002812D0FFF708FD00900AE006
:1009E000286A38432862F1E7FFF700FD0099411AB1
:1009F0005348814249D8286A8007F5D50DE0FFF7B2
:100A0000F5FC009006E0FFF7F1FC0099411A4C4814
:100A100081423AD8286A8007F5D40198002804D08A
:100A2000E969012000078143E9612078C00635D5D6
:100A3000606901280CD0401D686B23D0384368637F
:100A4000686B400840006863FFF7D0FC064622E070
:100A5000686B38436863686B30436863FFF7C6FCB4
:100A6000064604E0FFF7C2FC801B02285BD8686BD7
:100A70008007F7D5686BF8218843A169C90008434E
:100A800068630BE0B8436863F4E74CE0FFF7AEFC43
:100A9000801B022847D8686B8007F7D4206A00289B
:100AA00046D069680907890F022943D00126360616
:100AB0000228286805D0B0432860FFF797FC044659
:100AC00033E0B0432860FFF791FC074604E0FFF7EE
:100AD0008DFCC01B022826D828688001F7D4E86A5C
:100AE000E16A000900010843E862616AA06A0843FC
:100AF00069683D22120491430843686028683043C6
:100B00002860FFF773FC044604E0FFF76FFC001B4E
:100B1000022808D828688001F7D509E0FFF766FCAD
:100B2000001B022801D90320FEBD28688001F5D4EE
:100B30000020FEBD0120FEBD0010024000700040FC
:100B400088130000FFB581B016460F46040005D09B
:100B500025466035687A002803D007E0012005B0FB
:100B6000F0BD00202872204600F01AFB2420687295
:100B700020680168490849000160204601F00CF92D
:100B80000128ECD0606A002802D0204601F096F8D7
:100B90002068816801229203114381602068816886
:100BA0005200914339438160049871050004084361
:100BB00021680A68064B1A4002430A6020680168EF
:100BC000012211430160204601F0DDF8C7E7000073
:100BD000FFFF00FCF8B5040007D00026254640358D
:100BE000A662687F002802D005E00120F8BD2E77BC
:100BF000204600F04BF802236B7720680168402202
:100C0000914301600721E0680902884201D900226E
:100C100001E0012212030F273F02B84202D08842AE
:100C200000D0A662276B002F05D1884201D923632B
:100C300001E001202063A1686068636908432169BD
:100C4000194308430123A1695B0219400843E16984
:100C50000843216A0843A16A084321680860616B60
:100C6000606AA36908431B0C0427E1683B401943F1
:100C700008432168104348602068C1697A029143A3
:100C8000C1612666012068770020F8BD00B50068C4
:100C90000D4987B0884215D10C48C26909140A432E
:100CA000C261C069084005900720400300900220FF
:100CB00000210190032002910491039069460448A9
:100CC000FFF7E4FA07B000BD003800400010024012
:100CD00000040048FFB5044683B001202546403596
:100CE0000090287F00270E4601280FD0012028778A
:100CF000FFF77CFB0190687F616801280DD0CA1F57
:100D0000FD3A08D1A168002905D102E0022007B010
:100D1000F0BD042801D00227FAE0002E7CD005980F
:100D20000028FBD006980028F8D0687F042801D05E
:100D30000520687700202066059921640699E980DE
:100D40000699A980A6630699E1870699A187E064C0
:100D500020650723E1681B02994202D8E888012830
:100D600006D920684268012109038A43426005E0F0
:100D70002068416801221203114341602068016824
:100D8000490603D40168402211430160E1686068AC
:100D9000994242D9002802D0E08F012835D121683C
:100DA0003088C860E08F401EE087B61C2DE00098B8
:100DB00000280ED0E08F00280BD0206881688907BA
:100DC00007D53188C160E08F401EE0870020B61C47
:100DD0000090E88800280ED020688168C9070AD0F2
:100DE000C068059908800598801C0590E888401E19
:100DF000E880012000900C98401C06D0FFF7F6FA1E
:100E00000199411A0C9881426DD2E08F0028CED111
:100E1000E8880028CBD16EE079E0002802D0E08F8E
:100E2000012862D1E08F012807D921683088C86085
:100E3000E08F801EE087B61C57E021683078087389
:100E4000E08F401EE087761C4FE00098002818D005
:100E5000E08F002815D020688168890711D5E18FBF
:100E6000012906D93188C160E08F801EE087B61C59
:100E700005E031780173E08F401EE087761C00208A
:100E80000090E888002824D020688168C90720D015
:100E9000E988012912D9C068059908800598801C45
:100EA0000590E888801EE880E88801280FD820682F
:100EB0004168012212031143416008E0017B05985B
:100EC00001700598401C0590E888401EE8800120CC
:100ED00000900C98401C08D0FFF788FA0199401A3E
:100EE0000C99884201D3032712E0E08F0028ACD18F
:100EF000E8880028A9D12046019A0C9900F08EFCC0
:100F0000002801D020202066206E002800D0012774
:100F100001206877002028773846F8E60422044943
:100F20000428086902D09043086170471043FBE72A
:100F300000E000E0094910B5401E884201D90120B7
:100F400010BD074C60610321081F00F0F3FA002078
:100F5000A06107202061002010BD0000FFFFFF00FE
:100F600000E000E07047704770B5040005D02546EA
:100F70002035687F002802D006E0012070BD0020E7
:100F80002877204600F00AF802206877211D2068A3
:100F900000F050FE01206877002070BD70470268A5
:100FA000D36801210B43D360006802680A430260E2
:100FB00000207047704770B504460068016900253D
:100FC000C9438907002915DBC168C943890711D4C2
:100FD000E91E016101202077206880698007204692
:100FE00002D0FFF7E7FF04E000F096F8204600F09B
:100FF00094F8257720680169C943490717D4C16867
:10100000C943490713D40421C94301610220207751
:10101000206880698005800F204602D0FFF7CAFF54
:1010200004E000F079F8204600F077F82577206892
:101030000169C943090716D4C168C943090712D415
:101040000821C9430161042020772068C069800716
:10105000204602D0FFF7AEFF04E000F05DF8204626
:1010600000F05BF8257720680169C943C90617D4E9
:10107000C168C943C90613D41021C94301610820BE
:1010800020772068C0698005800F204602D0FFF7D6
:1010900091FF04E000F040F8204600F03EF825778C
:1010A00020680169C943C90708D1C168C943C90794
:1010B00004D1891E0161204600F030F820680169E2
:1010C000C943090609D4C168C943090605D480216A
:1010D000C94301612046FFF745FF20680169C94304
:1010E000490609D4C168C943490605D44021C9430A
:1010F0000161204600F01CF820680169C943890697
:1011000009D4C168C943890605D42021C9430161B6
:101110002046FFF728FF70BD7047704710B5006884
:101120000249884201D1FFF767F910BD0004004071
:10113000704770B5040005D025466035687A0028F0
:1011400002D006E0012070BD00202872204600F089
:1011500027F8242068722068016849084900016066
:10116000204600F019FE0128EDD0606A002802D068
:10117000204600F0A3FD206841680122D20291437D
:10118000416020688168082291438160206801687D
:10119000012211430160204600F0F5FD70BD000002
:1011A000F0B50668144F09200022144902230324D5
:1011B0000125C00687B0BE4208D18F695E03374360
:1011C0008F6189693140059161020BE00C4FBE428D
:1011D0000FD1CF69012676043743CF61C969314009
:1011E00005910E210091019302AE34C66946FFF7C6
:1011F0004DF807B0F0BD000000380140001002407B
:1012000000440040FFB5064604466036707A83B05D
:101210000D46202858D1002D0CD00598002809D063
:101220000120A1680003814207D12069002804D170
:10123000E80702D0012007B0F0BD307A012843D082
:10124000012030720020E06621207072FFF7CEF896
:10125000019027464037059838820598788218E033
:10126000788A401E788206980090002280212046CD
:10127000019B00F029FE002818D10120A16800037D
:10128000814202D12069002812D02168287808857F
:101290006D1C788A0028E3D1069800900022402136
:1012A0002046019B00F010FE002808D00320C2E772
:1012B00028882168C005C00D0885AD1CE9E72020FD
:1012C000707200203072B6E70220B4E7FEE710B576
:1012D000412824D108210846FEF7CCFF3D211120EA
:1012E00000F024FE8621172000F020FE7F2126201A
:1012F00000F01CFE1E212D2000F018FE00212C20E5
:1013000000F014FE8D212A2000F010FE3E212B203B
:1013100000F00CFE022001F0BEF800F02DF910BD27
:1013200010B592B0142216496846FEF73EFF002120
:10133000684601F0CBF8134C114920601422143197
:1013400005A8FEF732FF002105A801F0BFF80C49FF
:101350006060142228310AA8FEF727FF00210AA89E
:1013600001F0B4F80649A060083903C910910F9044
:1013700000210FA801F09CF8E06012B010BD000041
:10138000E431000800000020F0B5284887B0426929
:10139000012149040A43426142690A4005924269B7
:1013A00049000A43426140690022084005909721A4
:1013B00009200901C006FFF712F801273F030022A8
:1013C00039461B48FFF70BF870200090032003906C
:1013D000012500240920019502946946C006FEF704
:1013E00055FF802002266A4651C209206946C00680
:1013F000FEF74CFF07206A4651C269460C48FEF7CB
:1014000045FF029469460A48009701950394FEF748
:101410003DFF092000020090029469460195039463
:10142000C004FEF733FF07B0F0BD0000001002401B
:101430000004004810B5124810490160FF21053131
:10144000416000210722816012020161C260012215
:10145000416152028261016220224162C261816265
:101460000722C262016308214163FFF7B3FB002832
:1014700003D0512103A000F073FD10BD00380040DF
:10148000740000202E2E2F5372632F7370692E6309
:101490000000000010B50D480B490160E121490230
:1014A000416000218160C16001618161C1610C22E4
:1014B000016242614162FFF73CFE002803D04F21E8
:1014C00003A000F04DFD10BD00380140D800002001
:1014D0002E2E2F5372632F75736172742E6300006A
:1014E00010B50E480C490160E1214902416000211C
:1014F0008160C16001618161C1610C220162426150
:101500000B4641620A46FFF71DFB002803D0642109
:1015100003A000F025FD10BD00440040480100205C
:101520002E2E2F5372632F75736172742E63000019
:10153000704700008307FF22DB0E9A408907090EDF
:10154000994000280BDA0007000F08388308084884
:101550009B001818C36993430B43C361704783080A
:1015600004489B001B181868904308431860704794
:1015700000ED00E000E400E010B5142000F032F9C6
:10158000800703D10321142000F030FA10BD70B59C
:101590000646082188B000240846FEF76BFE0021AD
:1015A0000D2000F0C3FC80210E20FEF763FE932186
:1015B000684601712021417106A801AB009002220A
:1015C00019460C2000F018F8054626280DD10021F8
:1015D00001A8425C7254425C491C5440C9B20429BF
:1015E000F7D3405CA04200D0BB2580210E2000F044
:1015F000FDF9284608B070BDFFB581B00024019800
:10160000BB26174600940C2804D00E2805D11224BE
:10161000102001E0772430200090214680200143F3
:10162000022000F083FC80210420FEF723FE00212D
:10163000012000F07BFC80210A2000F0D7F9002572
:1016400005E00298415D092000F070FC6D1CBD4270
:10165000F7D30120019900F069FC01980C2803D10F
:1016600080210D2000F0C2F97D27FF00042000F04A
:10167000B9F805467F1E04D0E80702D1009805425C
:10168000F4D080210D20FEF7F5FD002F0FD00620AD
:1016900000F0A8F81B21084208D126262540E807BB
:1016A00000D0CC2601980C280CD000E0BB2680216D
:1016B0000C2000F09BF90021012000F037FC30469F
:1016C00005B0F0BD0A2000F08DF804460C2000F0B3
:1016D00089F84007400F03D0E1000839091800E0FD
:1016E000E1000A98002C016004D0122C04D91224C5
:1016F000002503E00124FBE7002506E0092000F0B7
:1017000071F80146049841556D1CA542F6D3CEE709
:1017100030B50C460546082187B00846FEF7AAFDFD
:1017200007210D2000F002FC0321142000F05EF9D7
:101730006846057106A801AB0090012219460C20ED
:10174000FFF75AFF262802D10699102902D0BB20A4
:1017500007B030BD694609792170694649796170E1
:10176000F6E770B5012209251402ED062146284648
:10177000FEF735FE012000F08EFE002221462846AD
:10178000FEF72DFE012000F086FE012221462846AC
:10179000FEF725FE012000F07EFE0F21012000F063
:1017A000C5FB012000F01EF8C006FAD4012000F0AD
:1017B00072FE3D21112000F0B9FB1E212D2000F00A
:1017C000B5FB00212C2000F0B1FB8D212A2000F078
:1017D000ADFB3E212B2000F0A9FB4021152000F09D
:1017E000A5FB70BD70B58006440E01250A4E2D0381
:1017F0000022294630468034FEF7F1FD204600F0F5
:101800004BF800F031F80446012229463046FEF735
:10181000E6FD204670BD000000040048F8B50F4604
:101820000B4615460092032104460022C90200F02F
:101830004BF82026002812D13B460022802120466A
:10184000009500F08CF8002809D103213B460022C6
:1018500049022046009500F037F8002803D0206E9A
:10186000304320660320F8BD3EB5FF24684604726D
:1018700007480090012301AA02A90648FFF72AFAA7
:10188000002801D068460471684600793EBD00001A
:10189000FFFFFF00740000200EB56946087208487B
:1018A0000090012301AA02A90648FFF713FA0028B5
:1018B00002D0FF2069460871684600790EBD00001D
:1018C000FFFFFF0074000020F8B51D4617460E46C6
:1018D00004463DE0032149028E4205D1002F03D189
:1018E000017B684601700078681C31D0002D05D05E
:1018F000FEF77CFD0699401AA84229D3206841686A
:10190000E022914341606068C11FFD390CD1012183
:10191000A068C903884202D04911884204D12068D6
:1019200001684022914301600120A16A4003814285
:1019300007D121680A6882430A6021680A68024365
:101940000A60012040346077002020770320F8BD32
:10195000206881683140B942BCD10020F8BDF8B59B
:101960001D4617460E46044633E0681C31D0002D54
:1019700005D0FEF73BFD0699401AA84229D32068FE
:101980004168E022914341606068C11FFD390CD17C
:101990000121A068C903884202D04911884204D1BC
:1019A000206801684022914301600120A16A400340
:1019B000814207D121680A6882430A6021680A6867
:1019C00002430A6001204034607700202077032022
:1019D000F8BD206881683046884304D00020B842B2
:1019E000C3D10020F8BD0120F9E7704770B50D465E
:1019F0000446FFF7F7FE28430146204600F096FA1A
:101A000070BD000008B5002069460880184C00F041
:101A1000B3FF69460880002826D0142000F03BFD63
:101A200000F0AAFF6946098888421DD1E0680028B5
:101A300003D119E0012000F02EFD00F09DFF694662
:101A400009888842F6D000230A226946E06801F03E
:101A5000BCF9C5B26846018806A000F083FA002DE3
:101A600002D10AA000F07EFA012000F014FDCEE7BA
:101A7000000000200D0A6B65795F76616C7565204A
:101A80003D20307825303458000000000D0A657282
:101A90007251554555455F46554C4C008CB0FFF78B
:101AA00060FE4120FFF713FC7D24E40013A000F04A
:101AB00059FA02A95220FFF72BFE262805D002A9C9
:101AC0005220FFF725FE262814D102A8FFF75FFD5C
:101AD00026280FD16846C17A807A01910090684625
:101AE000437A027A0AA103A800F04CFA03A911A0D4
:101AF00000F038FA204600F0CEFCD7E70D0A537408
:101B000061727452433532325461736B00000000CD
:101B100054686520436172642049442069733A2007
:101B20002530325825303258253032582530325839
:101B30000000000025730D0A000000007D24E40071
:101B4000204600F0A8FCFBE710B500F0B7FC10BD84
:101B500070B594B00024102009940225049005204B
:101B600001260095C00403960A9008950B946846D8
:101B7000FEF73EFE002800D0FEE707200C900E94F2
:101B800001210D950F940CA8FEF72EFD002800D022
:101B9000FEE710A810961294FEF7B2FC002800D0C1
:101BA000FEE7FEF7D3FD7D21C900FEF7D7FAFFF768
:101BB000C1F90420FFF7B2F903210022081FFEF744
:101BC0009BFC14B070BD0000134801680122114352
:101BD00001604168114A114041600168104A11409A
:101BE00001600168012292049143016041683F2233
:101BF000120491434160C16A09090901C162016B84
:101C0000FF22143291430163416B4908490041634B
:101C10000021816070470000001002400CB8FF08EE
:101C2000FFFFF6FE10B50248FFF7C5F910BD000032
:101C3000B8010020F0B502681A4B1B4C984201D045
:101C4000A04203D17025AA434D682A43174D184E70
:101C5000184F98420AD0A04208D0174CA04205D095
:101C6000A84203D0B04201D0B84205D114460322A5
:101C700012029443CA6822438024A2434C6922433F
:101C800002608A68C2620A688262984205D0A842ED
:101C900003D0B04201D0B84201D1096901630121EA
:101CA0004161F0BD002C01400004004000400140B3
:101CB00000440140004801400020004010B5818CE4
:101CC000C90707D001684A6801235B049A43836A05
:101CD0001A434A60818C890707D501684A68012345
:101CE0001B049A43C36A1A434A60818C490707D58B
:101CF00001684A6801239B049A43036B1A434A60B4
:101D0000818C090707D501684A680123DB039A43E0
:101D1000436B1A434A60818CC90607D502689168F3
:101D200001231B039943836B19439160818C8906BE
:101D300007D501688A6801235B039A43C36B1A4382
:101D40008A60818C490612D503685A680121090509
:101D5000046C8A4322435A60026C8A4207D10268AB
:101D6000516803235B059943436C19435160818C8F
:101D7000090607D501684A680123DB04806C9A4391
:101D800002434A6010BD0021C166202260304272C9
:101D90008272017208467047F8B504462369A2684A
:101DA000E5691A43636910202B43002125681A4313
:101DB0002B680E463E4F3B4013432B6023685A6806
:101DC00003252D03AA43E5682A435A60236AA269C2
:101DD00025681A43AB680B273F02BB431343AB6034
:101DE000344A2568954210D1334A126B9207920FFC
:101DF0000ED0012A05D0022A05D0032A09D10220DB
:101E000007E0042005E0082003E02C4A954200D1B9
:101E100000200122E369D203934224D100280CD090
:101E200002280DD0042813D0082817D001260A094B
:101E300012010807400F10432FE0FEF78DFC09E068
:101E400061681F4A48088018FEF788F981B2EEE7FA
:101E5000FEF792FC616840004A08F4E761680122DD
:101E600048081204EFE7002808D0022809D0042807
:101E70000BD0082814D001263046F8BDFEF76CFCC4
:101E800005E061680F4A48080CE0FEF775FC6168E0
:101E90004A088018FEF762F980B22168C860EBE753
:101EA000616848088018FEF759F980B2E860E3E7F6
:101EB000F369FFFF00380140001002400044004079
:101EC0000024F40000127A00FFB581B017460E46D8
:101ED00004460A9D1DE0681C1BD0002D05D0FEF7AE
:101EE00085FA0499401AA84213D920680168FF2294
:101EF000A1329143016020688168490849008160EE
:101F0000202060346072A07200202072032005B08F
:101F1000F0BD2068C1693046884304D00020B84233
:101F2000D9D00020F3E70120F9E70000F8B58006DA
:101F300001250A4F0E46440E2D030022294638463D
:101F4000FEF74DFA2046FFF7A7FC3046FFF7A4FC4A
:101F5000012229463846FEF742FAF8BD000400483F
:101F6000FEE700000FB410B503A9044B044A029821
:101F700000F02CF810BC08BC04B018474D24000831
:101F8000700000200FB410B504A9074B02AA0398F3
:101F900000F01CF8044602A9002000F051FA204687
:101FA00010BC08BC04B018474124000802E008C86F
:101FB000121F08C1002AFAD170477047002001E0C3
:101FC00001C1121F002AFBD170470000FFB591B07C
:101FD0000F460546002606E025280AD0149A1399D4
:101FE00090476D1C761C28780028F5D1304615B036
:101FF000F0BD002400940121F34A029400E0044360
:102000006D1C2B780846203B98401042F7D1287869
:102010002A280ED0022128780246303A092A15D8FB
:10202000009A0A235A43303A80180C436D1C0090E2
:10203000F1E701CF0090002805DA012040030443B6
:10204000009840420090022004436D1C28782E28FE
:1020500015D10420044368786D1C2A280AD101CFC9
:102060006D1C02900BE002990A225143303940184E
:102070006D1C02902878014630390929F3D9287857
:102080006C2810D006DC4C281AD068280ED06A289C
:1020900017D104E0742813D07A2812D110E001205F
:1020A000400504430CE00121090501E00321090575
:1020B0000C436978814203D10120000524186D1C6E
:1020C0006D1C287803906E281ED00CDC632831D05C
:1020D00004DC00288AD0582811D1B2E064287BD0D3
:1020E00069280CD178E073282DD004DC6F2870D0DB
:1020F000702804D1A7E075286CD078286BD0149A8A
:1021000013999047761C62E06002400F022807D0C6
:1021100003280AD0042838680AD006603F1D56E01C
:102120003868F11706604160F8E738680680F5E71F
:102130000670F3E73878694608740020487404A8EC
:102140000390012003E0386803900020C0433F1D46
:1021500061070FD5002101E00199491C029A019104
:10216000914213DA8142F7DB019A0399895C0029D5
:10217000F2D10BE0002101E00199491C019181425B
:10218000FADB019A0399895C0029F5D1019900983D
:10219000139A401A00902146149B00F03BF90199D4
:1021A0008019461807E0039803990078491C0391A9
:1021B000149A139990470198401E0190401CF2D147
:1021C0002146149B139A009800F014F986196D1C8F
:1021D00009E741E033E034E00A2000210490059152
:1021E0006002410F022905D001CFC217944603298E
:1021F00005D007E0FF1DFF08FF0003CF06E000B297
:10220000C2179446042902D140B2C1178C4600225D
:102210006146944506DA0A460021404291418C46C7
:102220002D2102E0210504D52B216A4611760121DA
:1022300003E0E10701D02021F7E7019154E00A20F3
:102240000BE0102009E0102004900021042004433A
:1022500008200591029003E00820002105910490D8
:102260006002410F022905D001CF002294460329C4
:1022700006D006E0FF1DFF08FF0003CF8C4603E0F9
:1022800080B2042900D1C0B20021019121072BD5D1
:102290000399702906D0049A1021059B4A401A43DD
:1022A00005D00EE040216A461176012108E0614622
:1022B000014306D030216A461176039951760221F6
:1022C0000191049A0821059B4A401A430CD16146AA
:1022D000014301D1610707D530216A4611760121FA
:1022E00001910299491E02910399582904D037A1FE
:1022F00003910FA90F910DE039A1F9E76146059B04
:10230000049AFDF764FF039B8C469B5C0F9A521E58
:102310000F92137061460143F0D10F9807A9081A74
:1023200020300390600704D5012000048443029804
:1023300001E0012002900399884201DD401A00E08B
:10234000002041180290019809180098401A009046
:10235000E00306D42146149B139A009800F05AF823
:1023600086190020049008E006A9085C149A1399C5
:1023700090470498401C761C049001998842F3DB36
:10238000E0030CD52146149B139A009800F042F804
:10239000861904E0149A302013999047761C02990C
:1023A000481E02900029F5DC08E00F980F9900788C
:1023B000491C0F91149A13999047761C0399481E53
:1023C00003900029F1DCFBE60928010030313233AB
:1023D0003435363738396162636465660000000061
:1023E000303132333435363738394142434445464B
:1023F00000000000F8B5044600251E461746880474
:1024000004D405E039462020B0476D1C641EF9D580
:102410002846F8BDFFB50446002581B01E46C80316
:1024200001D5302700E02027880404D505E0384690
:102430000399B0476D1C641EF9D5284605B0F0BD60
:102440000A68531C0B6010707047000013B5044BF2
:10245000012269460348FEF7D5FE00981CBD000026
:10246000FFFF0000D8000020FDF7CEFFFFF770FB54
:10247000FEF78AFFFFF734F8FEF7DCFFFFF70AF8F4
:10248000FEF74EFF00F00FF8FEE70146002084291A
:1024900000D0C81C704710B5002800D1012000F002
:1024A0007FFB002010BD10B500F0B6FB002010BD72
:1024B00010B503C8002200F033FC10BD10B500F0C9
:1024C00063FD012801D000F019FC10BD3EB50446A3
:1024D00008200D46205EFFF7D8FF02A90191009069
:1024E000208A2B4682B22168606800F025FD012811
:1024F00001D000203EBD02983EBD0000F8B5134C4F
:102500000F46E66805462068001D00F0ABFA681C1F
:1025100007D1002F05D021680D48091D00F0DAFA17
:10252000F8BD2068751945602168B54204D2A06BDA
:10253000091D00F0B7FAF8BD606B091D00F0B2FA92
:10254000A06A8542F7D2A562F8BD000034000020E1
:10255000D40E0020F8B5054600F0C8FA294CA06852
:10256000401CA0602068284F002803D06069002824
:1025700027D02CE02560A068012828D1002614204F
:102580007043C01900F080FA761C072EF7D31E485E
:102590008C3000F079FA1C48A03000F075FA1A4827
:1025A000B43000F071FA1848C83000F06DFA1648DF
:1025B000DC3000F069FA14488C3060631430A0639A
:1025C00005E02068E96AC06A884200D82560606A30
:1025D000401C6062E86A2169884200D920611421A8
:1025E0004843C019291D00F075FA00F08BFA6069A4
:1025F000002806D02068E96AC06A884201D200F04B
:10260000C3FAF8BD34000020F80D002070B5114E5B
:10261000114C18E000F026FB3068002817D000F0BD
:1026200087FD00F063FAF068C568281D00F01AFA0B
:10263000A068401EA0606068401E606000F062FA02
:10264000284600F043F860680028E3D170BD00F030
:102650006FFDF8E7C00E002034000020F8B5856B50
:10266000174604460026026C002A11D0002F19D00C
:10267000E068FDF79AFDE168206C091AE1602268C4
:10268000914202D26168081AE060022F17D019E067
:102690002068002816D1606800F0E4FC064600209F
:1026A00060600FE0A068FDF780FD216CA068401815
:1026B000A0606168884205D32068A06002E0002D18
:1026C00000D06D1E6D1CA5633046F8BD10B50446E4
:1026D000006B00F025FA204600F022FA10BD000041
:1026E00003210E488902420705D0C01DC0080B4ACD
:1026F000C000821A891A0A4A0023411809C20839FF
:10270000C908C900183A11604B600B600B1A0AC067
:1027100093600120C0075360D0607047F80100202B
:1027200028000020044CFFF771FF20680128FAD927
:1027300000F02AFAF7E70000F80D0020FFB581B09D
:102740000C9C9000236B001F1818C6080A9DF60009
:10275000700701D072B6FEE723180A5C20331A75A1
:102760000A5C002A02D0401C1028F5D320464030D5
:1027700000270090C770072D00D30625E562A764E7
:10278000201D656400F08BF92046183000F087F9B1
:1027900024610720401B6462A061E764009807740D
:1027A0003046049A019900F0D7F820600B98002871
:1027B00000D0046005B0F0BD30B5114900E011460D
:1027C0000A688242FBD34B685C18844203D140689C
:1027D00018184860084643681C18944209D1084CF0
:1027E000103C2468A24209D052689A1842600A68D4
:1027F00012680260814200D0086030BD0460F9E7D1
:10280000280000200648416B0968002905D0416B6B
:10281000C968C9684968816270470021C943FAE7FD
:102820003400002003480068401C72B600D0FEE768
:10283000FEE7000030000020F8B5044600F056F92D
:10284000254640350526AE57274624370BE0606AFB
:1028500000280AD0384600F039FC002801D000F0EA
:10286000B7F9761E76B2002EF1DC0027FF436F71B8
:1028700000F048F900F03AF90426AE57204610302F
:1028800000900BE0206900280AD0009800F01EFCA0
:10289000002801D000F09CF9761E76B2002EF1DC03
:1028A0002F7100F02FF9F8BDF8B50546002700F0AC
:1028B000D9F9284E3068002801D1FFF711FFF068E0
:1028C00005423FD1002D3DD00835680708D0680784
:1028D000400F0821081A4519680701D072B6FEE7B3
:1028E000002D2FD0706885422CD81A481030014630
:1028F0000C6801E020460C466168A94202D22168BA
:102900000029F7D131688C421CD00768216801602A
:1029100060680837411B102908D96019420701D0A7
:1029200072B6FEE741606560FFF746FF6168706858
:10293000401A7060B268904200D2B060F068014303
:10294000002003C400F0F4FB780701D072B6FEE764
:102950003846F8BD1800002010B50124031F2406D6
:102960001C601B1F1960191F024B0B601439403883
:102970000A6010BD2528000870B50926F606012258
:1029800010213046FDF72BFD002220213046FDF7B7
:1029900026FD002240213046FDF721FD00F03AF8E7
:1029A0000546002210213046FDF719FD01222021A5
:1029B0003046FDF714FD002240213046FDF70FFDA3
:1029C00000F028F804012C43002210213046FDF7C6
:1029D00006FD002220213046FDF701FD01224021A5
:1029E0003046FDF7FCFC00F015F80002204384B2ED
:1029F000002210213046FDF7F2FC00222021304653
:102A0000FDF7EDFC002240213046FDF7E8FC2046B2
:102A100070BD000070B5092000248021C006FDF7BC
:102A2000D9FC012800D101240D4D01212846FDF7D4
:102A3000D1FC012801D10220044302212846FDF7E0
:102A4000C9FC012801D10420044304212846FDF7D4
:102A5000C1FC012801D108200443204670BD0000BC
:102A6000000400484368826801699A60836842688C
:102A70005A604A68824201D182684A60002202613B
:102A80000868401E08607047014608310022416016
:102A9000D243C16082600161002101607047002162
:102AA0000161704730B50B685A1C02D002460832EB
:102AB00002E0026904E02246546825689D42FAD982
:102AC00053684B6099608A60516008610168491CD5
:102AD000016030BD42684A6093688B6093685960BA
:102AE000916008610168491C0160704772B6044832
:102AF0000168491C0160BFF34F8FBFF36F8F7047B0
:102B00003000002005490868002804D0401E0860F5
:102B100000D162B6704772B6FEE7000030000020B8
:102B200070B500281AD004460D4D083C6068E9686D
:102B3000084201D172B6FEE72268002A01D072B6BF
:102B4000FEE78843606000F08DF8606869684018AF
:102B500068602046FFF730FE00F0EAFA70BD000022
:102B60001800002010B506487D21C9000068FDF757
:102B7000F5FA0449401E48610720086110BD0000B5
:102B80001400002000E000E0012004490007486034
:102B9000BFF34F8FBFF36F8F7047000000ED00E071
:102BA00010B502000FD00948006B002801D072B6A2
:102BB000FEE700F057F800211046FFF79FFC00F0F9
:102BC000B7FA002801D1FFF7DFFF10BD3400002065
:102BD00001490120C86170473400002010B50C463F
:102BE000002809D0054909681831FFF75BFF01216A
:102BF0002046FFF783FC10BD72B6FEE734000020CC
:102C0000002805D003490A6A0260C968416070471C
:102C100072B6FEE7340000201CB50E480024019077
:102C2000234640220CA100940D4800F085F90128AC
:102C300003D0401C0CD172B6FEE772B600210548E5
:102C4000C9432C38816201214161C46000F03EF823
:102C50001CBD00006000002049444C4500000000FD
:102C6000252700080248016B491C016370470000DA
:102C70003400002010B51348016B002902D0012157
:102C8000C16110BD0021C16101690F4A02E0002944
:102C900015D0491E14234B43D358002BF7D01423CF
:102CA0004B439A18536814465B6808345360A34238
:102CB00001D15B685360DA680260016110BD72B6D1
:102CC000FEE7000034000020F80D002010B5094890
:102CD000016AFF22120411430162016A12021143C8
:102CE0000162FFF73FFF044900200860FDF7ECF99F
:102CF000002010BD00ED00E03000002010B5FDF711
:102D0000F7F9044600F050F9002803D001200349E8
:102D1000000748602046FDF7EFF910BD00ED00E028
:102D200070B50E46050014D0002E14D07043483004
:102D3000FFF7BAFD04000AD0214648312046002E94
:102D40000BD0016006640121C56300F008F820463D
:102D500070BD72B6FEE70020E9E70060F2E770B5EB
:102D60000D46040025D0FFF7C1FE216CE06B4843FF
:102D70002168411861600021A1632168A160E06BB6
:102D8000216C401E484321684118E1600021C9437D
:102D900020464030017141713038002D0BD0FFF7D3
:102DA00073FE20462430FFF76FFEFFF7ABFE0120D5
:102DB00070BD72B6FEE721690029F6D000F086F9F1
:102DC0000028F2D0FFF7E0FEEFE7FFB5002683B062
:102DD0001D46040003D00498002802D006E072B615
:102DE000FEE7206C002801D072B6FEE7022D04D168
:102DF000E06B012801D072B6FEE700F0C5F80027AD
:102E0000002804D10598002801D072B6FEE7FFF72C
:102E10006DFEA06BE16B884207D3022D05D00598AB
:102E2000002817D0002E18D01BE02A46204604990F
:102E3000FFF714FC616A002903D02046243000F01B
:102E400045F9002801D0FFF79FFEFFF75BFE012048
:102E500007B0F0BDFFF756FE22E06846FFF7D0FE50
:102E60000126FFF74FFEFFF7FDFEFFF73FFE20466E
:102E7000403004214156491C00D1077105214156BB
:102E8000491C00D14771FFF73DFE05A9684600F0D7
:102E900029F8002806D02046FFF7CEFC00F048F9BC
:102EA0000020D5E7FFF722FEA06BE16B884210D12E
:102EB000FFF728FE204610300599FFF78FFE2046C9
:102EC000FFF7BAFC00F034F90028A0D1FFF75CFE50
:102ED0009DE7FFF717FE2046FFF7AEFC00F028F94C
:102EE00095E7000070B50D4604001AD0002D1AD0E9
:102EF000FFF7FCFD0F4AD1682868431C0FD02368F8
:102F0000126A934202D062688A420ED96268891AB4
:102F100081420AD2401A28602046FFF771FE002441
:102F200004E072B6FEE772B6FEE70124FFF7EAFDA1
:102F3000204670BD34000020FFB585B016469000D5
:102F40000F9FFFF7B1FC05001AD05420FFF7ACFC2F
:102F5000040012D0256300210E9803910197009080
:102F600002943246089B06990598FFF7E7FB204636
:102F7000FFF7F0FA012009B0F0BD2846FFF7D0FDB9
:102F80000020C043F7E7000006484169002904D04B
:102F9000006B002803D000207047012070470220FA
:102FA0007047000034000020F8B52C4C0027206B3F
:102FB000002808D0A069401CA061E069002800D06A
:102FC00001273846F8BDE668761CE6600ED1606BD6
:102FD0000068002801D072B6FEE7606BA16B6163E8
:102FE000A063206A401C2062FFF70CFCA06A8642A6
:102FF0000AD3606B0068002810D0606BC068C56899
:10300000686886420DD2A06220681421C06A4843D5
:10301000134908580128D0D90127CEE70020C04322
:10302000F1E7281DFFF71EFDA86A002803D02846F7
:103030001830FFF717FDE86A2169884200D920613E
:103040001421484306494018291DFFF743FDE86A4B
:103050002168C96A8842CCD30127CAE7340000201E
:10306000F80D002070B500210446002828D0154D29
:103070002868844201D072B6FEE7A06C002808D010
:10308000401EA064636CE26A9A4219D0002802D004
:1030900016E072B6FEE7201DFFF7E4FC606C072126
:1030A000E062081AA061E06A2969884200D92861B3
:1030B0001421484304494018211DFFF70BFD01214D
:1030C000084670BD34000020F80D002070B5C068BF
:1030D000C468002C0BD0204618300646FFF7C2FC0F
:1030E000114D286B002804D0314610480FE072B60D
:1030F000FEE7201DFFF7B6FCE06A2969884200D987
:103100002861142148430949B4394018211DFFF7AB
:10311000E1FCE06A2968C96A884202D90120E861B5
:1031200070BD002070BD000034000020AC0E0020F7
:10313000F8B5284C0025206B2E46002808D0FFF754
:10314000D5FC206B401E2063206B002802D03DE0A0
:1031500072B6FEE7A168204F00291DD136E0F8685D
:10316000C56828461830FFF77DFC281DFFF77AFC5C
:10317000E86A2169884200D9206114214843164930
:10318000B4394018291DFFF7A5FCE86A2168C96A0F
:10319000884201D30120E06138680028DFD1002D8A
:1031A00001D0FFF72FFBA569002D09D00127FFF7FC
:1031B000FBFE002800D0E7616D1EF8D10020A06161
:1031C000E069002802D00126FFF7DEFCFFF79AFC39
:1031D0003046F8BD34000020AC0E00200500000091
:1031E00004000000383200089D1A0008FFFF0000AC
:1031F0000000000080000000443200083D1B000871
:10320000FDFF0000000000004000000050320008F8
:10321000051A0008FDFF000000000000800000000B
:103220000000000000000000010203040607080976
:10323000000000000102030452433532325461732E
:103240006B00000052533438355461736B0000003A
:103250004B65795461736B007832000800000020E0
:1032600074000000AC1F0008EC320008740000205D
:1032700074120000BC1F00080000000000000000E5
:1032800000000000000000000000000000127A00B2
:10329000000000000000000000000000000000002E
:1032A0000000000000000000AAAAAAAA0000000076
:1032B000000000000000000000000000000000000E
:1032C00000000000000000000000000000000000FE
:1032D00000000000000000000000000000000000EE
:0C32E000000000000000000000000000E2
:04000005080000B53A
:00000001FF
