:020000040800F2
:10000000881200204101000869100008BD0E000898
:1000100000000000000000000000000000000000E0
:10002000000000000000000000000000B110000807
:100030000000000000000000FF0000085911000847
:10004000530100080000000053010008530100089C
:100050005301000853010008530100085301000830
:10006000000000005301000853010008530100087C
:10007000530100085301000853010008000000006C
:100080003512000853010008000000005301000869
:1000900053010008530100085301000853010008F0
:1000A00053010008530100085301000853010008E0
:1000B000530100080348854600F0C6F80048004791
:1000C000A319000888120020084B1968086820301E
:1000D00080F30988022080F31488BFF36F8F3FBC40
:1000E000AE4608BC04BC62B61847000034000020CD
:1000F000EFF3108072B6704780F310887047EFF30B
:1001000009800E4B1A6820381060F0C044464D46F6
:1001100056465F46F0C008B572B602F04FF862B6B8
:100120000CBC116808681030F0C8A046A946B24659
:10013000BB4680F309882038F0C8184734000020F7
:100140000448804704480047FEE7FEE7FEE7FEE775
:10015000FEE7FEE7D9110008B500000830B50B46F0
:10016000014600202022012409E00D46D5409D4291
:1001700005D31D469540491B254695404019154617
:10018000521E002DF1DC30BD10B5202A04DB0846DC
:10019000203AD040002110BD0B46D340D04020244F
:1001A000A21A91400843194610BD03460B439B0712
:1001B00003D009E008C9121F08C0042AFAD203E0DC
:1001C0000B780370401C491C521EF9D2704730B5A1
:1001D00004460020034600E05B1C934203D2E05C2F
:1001E000CD5C401BF8D030BDF0B51FB406460020F2
:1001F00082B005464024019100901BE001992246FF
:100200000F463046FFF7C0FF049A059B801A9941BC
:1002100010D310461946224600F028F8361A8F41AE
:100220000197224601200021009F00F01FF8381896
:100230004D4100902046641E0028DFDC019B0098A1
:100240002946324607B0F0BD064C0125064E05E0B2
:10025000E36807CC2B430C3C98471034B442F7D3E7
:10026000FFF72CFFA0270008C027000810B5202AA0
:1002700004DB0146203A9140002010BD914020232C
:100280009C1A0346E3401943904010BDF8B5002383
:100290008DE001249C40A44622407DD04C68022C75
:1002A00001D0122C0CD1DC08A40027183C6A5D0791
:1002B000ED0E0F26AE40B4430E69AE4026433E62BB
:1002C00005685E000324B4400F79A543BF07BF0F44
:1002D000B7402F4307604D68012D05D0022D03D094
:1002E000112D01D0122D0ED18568CF68A543B740DE
:1002F0002F43876047686546AF430D79ED06ED0FE4
:100300009D403D434560C568A5438C68B4402C437F
:10031000C4604C68E40049D5284CA56901263543E2
:10032000A561A4699D0834400094254CAD002F19A7
:10033000BC689D072E0F0F25B540AC430925ED067F
:10034000A84201D100250FE01E4DA84201D1012590
:100350000AE01D4DA84201D1022505E01B4DA8422F
:1003600001D1032500E00525B5402543BD60184CAB
:1003700025684E689543F60300D5154325606568EA
:100380004E689543B60300D515436560A5684E6871
:100390009543F60202D500E008E01543A560E56844
:1003A0004E689543B60200D51543E5605B1C0A68AC
:1003B0001446DC4000D06CE7F8BD0000001002409D
:1003C000000001400004004800080048000C0048FC
:1003D000000401400069084000D001207047002A55
:1003E00001D0816170478162704700000148006858
:1003F000704700001000002002480168491C01609D
:10040000704700001000002010B506480168102257
:1004100011430160002000F007F800F041F80020CF
:1004200010BD00000020024000B5014687B0002248
:10043000102000F061F8102000F054F81348C26951
:1004400002210A43C261C0690840059004A96846B8
:1004500000F060F900F080F90D49FFF77FFE0E49CA
:100460000C4A0A600D4A401ECA60486000200861BC
:100470008860084600F0D4FB002802D0012007B0B5
:1004800000BD054800F0E7FBF9E70000001002405E
:1004900040420F000004004054010020E703000028
:1004A00008B50F48816901221143816181691140BA
:1004B0000091C26901040A43C261C0690022084078
:1004C00000901146501F00F017F803210022481F2A
:1004D00000F012F803210022081F00F00DF808BDFB
:1004E00000100240C106C90E012088400149086081
:1004F0007047000000E100E010B500F0B7FD10BD4E
:10050000F8B505460068354CC00352D5E0690026B1
:10051000C00007D4E16920040143E161E1690140C1
:10052000012600912E480168C90510D40168821582
:1005300011430160FFF75AFF074604E0FFF756FF3B
:10054000C01B642824D826480068C005F6D5206A58
:1005500003273F02384020D06968394081421CD0CF
:10056000206A226AB843012109040A432262226AEE
:100570008A4322622062C0070FD0FFF737FF009046
:1005800008E0FFF733FF0099411A1648814201D96C
:100590000320F8BD206A8007F3D5206A6968B84354
:1005A00008432062002E04D0E16901200007814346
:1005B000E1612878C00705D0206BA9688008800019
:1005C000084320632878800605D5206B10218843D6
:1005D000E968084320630020F8BD000000100240D5
:1005E0000070004088130000F8B5054644480E46E8
:1005F0000068C007C00FB0420AD2414801684908EC
:100600004900314301600068C007C00FB0425CD1AF
:1006100028783C4C800705D56068F0218843A9689C
:10062000084360602878C0073FD06868012813D06D
:100630002168022813D08907002946DA61688908F1
:10064000890001436160FFF7D1FE6968074601290F
:100650000DD0022917D024E021688903ECE7890135
:10066000EAE7FFF7C3FEC11B2748814217D860683D
:100670000007800F0128F4D117E0FFF7B7FEC11B78
:10068000214881420BD860680007800F0228F4D10E
:100690000BE0FFF7ABFEC11B1B48814201D90320D1
:1006A000F8BD60680007800FF3D115480168C907DD
:1006B000C90FB1420BD901684908490031430160B3
:1006C0000068C007C00FB04201D00120F8BD2878F3
:1006D000400706D56068072109028843E968084396
:1006E000606000F049F86168084A0906090F515C2A
:1006F000C840074908600020FFF796FE0020F8BDBB
:100700000020024000100240881300006827000803
:100710001400002010B5072202600A4A53689B07A4
:100720009B0F43605368F024234083605268072383
:100730001B021A40C26004480068C007C00F08606E
:1007400010BD000000100240002002400148006877
:1007500070470000140000200448054900684968FB
:10076000044A4905490F515CC840704714000020F5
:10077000001002407827000810B512A30FCB88B0F4
:100780006C460FC413A30FCB0FC416494A680C2044
:10079000134603401448042B0FD0082B0DD19302AD
:1007A0001B0F6C46E45CC96A04AB0907090F595C6E
:1007B000D20304D5FFF7D2FC604308B010BD0B484C
:1007C0006043FAE702030405060708090A0B0C0D4B
:1007D0000E0F10100102030405060708090A0B0C8E
:1007E0000D0E0F100010024000127A0000093D00AB
:1007F000FEB504460078D04DC00747D068680007B2
:10080000800F012807D068680007800F022809D1EF
:100810006868C00306D52868800337D5606800285B
:100820007ED033E0012062680004012A11D08100EB
:10083000002A01D0052A10D02A6882432A6028683D
:10084000884328606068002814D0FFF7CFFD064673
:100850000CE0296801432960F4E72A680A432A600A
:10086000F7E7FFF7C3FD801B64286FD82868800373
:10087000F7D50BE0FFF7BAFD064604E0FFF7B6FD3B
:10088000801B6428F1D828688003F7D420780126DB
:10089000800700283BDA68680007800F07D0686887
:1008A0000007800F022809D16868C00306D42868B1
:1008B000800715D5E068012832D111E0E0680028F2
:1008C000286815D030432860FFF790FD074604E004
:1008D000FFF78CFDC01B0228C7D828688007F7D512
:1008E0002868F82188432169C900084328600EE080
:1008F000400840002860FFF779FD074604E0FFF755
:1009000075FDC01B0228B0D828688007F7D420786E
:10091000000724D5E0690028686A10D0304300E061
:1009200008E16862FFF762FD074604E0FFF75EFD3D
:10093000C01B022899D8686A8007F7D50FE04008E5
:1009400040006862FFF752FD074605E09DE0FFF7B3
:100950004DFDC01B022888D8686A8007F7D420782C
:1009600004274007002860DA00200190E869C000F1
:1009700008D4E969B8060143E961E9690140012049
:10098000009101906D480168C90511D40168821574
:1009900011430160FFF72AFD009005E0FFF726FDF7
:1009A0000099401A642870D864480068C005F5D5DD
:1009B000A06801280AD0002801D0052810D0286A94
:1009C000400840002862286AB84301E0286A3043A2
:1009D0002862A068002812D0FFF708FD00900AE006
:1009E000286A38432862F1E7FFF700FD0099411AB1
:1009F0005348814249D8286A8007F5D50DE0FFF7B2
:100A0000F5FC009006E0FFF7F1FC0099411A4C4814
:100A100081423AD8286A8007F5D40198002804D08A
:100A2000E969012000078143E9612078C00635D5D6
:100A3000606901280CD0401D686B23D0384368637F
:100A4000686B400840006863FFF7D0FC064622E070
:100A5000686B38436863686B30436863FFF7C6FCB4
:100A6000064604E0FFF7C2FC801B02285BD8686BD7
:100A70008007F7D5686BF8218843A169C90008434E
:100A800068630BE0B8436863F4E74CE0FFF7AEFC43
:100A9000801B022847D8686B8007F7D4206A00289B
:100AA00046D069680907890F022943D00126360616
:100AB0000228286805D0B0432860FFF797FC044659
:100AC00033E0B0432860FFF791FC074604E0FFF7EE
:100AD0008DFCC01B022826D828688001F7D4E86A5C
:100AE000E16A000900010843E862616AA06A0843FC
:100AF00069683D22120491430843686028683043C6
:100B00002860FFF773FC044604E0FFF76FFC001B4E
:100B1000022808D828688001F7D509E0FFF766FCAD
:100B2000001B022801D90320FEBD28688001F5D4EE
:100B30000020FEBD0120FEBD0010024000700040FC
:100B400088130000FFB581B016460F46040005D09B
:100B500025466035687A002803D007E0012005B0FB
:100B6000F0BD00202872204600F076F9242068723B
:100B700020680168490849000160204600F014FC23
:100B80000128ECD0606A002802D0204600F09EFBCD
:100B90002068816801229203114381602068816886
:100BA0005200914339438160049871050004084361
:100BB00021680A68064B1A4002430A6020680168EF
:100BC000012211430160204600F0E5FBC7E7000069
:100BD000FFFF00FC042204490428086902D0904366
:100BE000086170471043FBE700E000E0094910B5D9
:100BF000401E884201D9012010BD074C60610321CD
:100C0000081F00F033FA0020A061072020610020B7
:100C100010BD0000FFFFFF0000E000E070477047DC
:100C200070B5040005D025462035687F002802D025
:100C300006E0012070BD00202877204600F00AF869
:100C400002206877211D206800F0FCFA01206877F7
:100C5000002070BD70470268D36801210B43D36048
:100C6000006802680A43026000207047704770B550
:100C70000446006801690025C9438907002915DB7E
:100C8000C168C943890711D4E91E01610120207799
:100C9000206880698007204602D0FFF7E7FF04E064
:100CA00000F096F8204600F094F825772068016956
:100CB000C943490717D4C168C943490713D404215C
:100CC000C943016102202077206880698005800F78
:100CD000204602D0FFF7CAFF04E000F079F8204672
:100CE00000F077F8257720680169C943090716D411
:100CF000C168C943090712D40821C943016104200E
:100D000020772068C0698007204602D0FFF7AEFF39
:100D100004E000F05DF8204600F05BF825772068DD
:100D20000169C943C90617D4C168C943C90613D4A8
:100D30001021C9430161082020772068C06980051F
:100D4000800F204602D0FFF791FF04E000F040F84A
:100D5000204600F03EF8257720680169C943C9079D
:100D600008D1C168C943C90704D1891E0161204661
:100D700000F030F820680169C943090609D4C16848
:100D8000C943090605D48021C94301612046FFF704
:100D900045FF20680169C943490609D4C168C943B0
:100DA000490605D44021C9430161204600F01CF8E2
:100DB00020680169C943890609D4C168C943890605
:100DC00005D42021C94301612046FFF728FF70BDEB
:100DD0007047704710B500680249884201D1FFF79B
:100DE0000BFB10BD00040040704770B5040005D037
:100DF00025466035687A002802D006E0012070BDE3
:100E000000202872204600F027F82420687220680D
:100E10000168490849000160204600F0C5FA012830
:100E2000EDD0606A002802D0204600F04FFA20681A
:100E300041680122D2029143416020688168082202
:100E400091438160206801680122114301602046BE
:100E500000F0A1FA70BD0000F0B50668144F09203B
:100E600000221449022303240125C00687B0BE4294
:100E700008D18F695E0337438F61896931400591DD
:100E800061020BE00C4FBE420FD1CF690126760400
:100E90003743CF61C969314005910E21009101931B
:100EA00002AE34C66946FFF7F1F907B0F0BD0000A5
:100EB000003801400010024000440040FEE70000FE
:100EC00010B592B0142216496846FFF76EF900215A
:100ED000684600F096FD134C11492060142214312D
:100EE00005A8FFF762F9002105A800F08AFD0C496A
:100EF0006060142228310AA8FFF757F900210AA8D8
:100F000000F07FFD0649A060083903C910910F90D9
:100F100000210FA800F067FDE06012B010BD0000D6
:100F20002C27000800000020F0B5244887B0426953
:100F30000121C9040A43426142690A40059242699B
:100F400089100A43426142690A4005924269490098
:100F50000A43426140691A4F08404C110590002233
:100F600021463846FFF73BFA09200022F021C0064F
:100F7000FFF735FA134E002231461348FFF72FFAD8
:100F80000094002401250195029469463846039493
:100F9000FFF77CF9F0200090092002946946019542
:100FA0000394C006FFF772F902946946064800965A
:100FB00001950394FFF76AF907B0F0BD00100240F5
:100FC00000080048070200000004004810B50D4862
:100FD0000B490160E1214902416000218160C1604B
:100FE00001618161C1610C22016242614162FFF7CE
:100FF000FCFE002803D04F2103A000F06DFA10BDC5
:1010000000380140740000202E2E2F5372632F757C
:10101000736172742E63000010B50E480C490160B4
:10102000E1214902416000218160C160016181616B
:10103000C1610C22016242610B4641620A46FFF720
:1010400081FD002803D0642103A000F045FA10BD03
:1010500000440040E40000202E2E2F5372632F75B1
:10106000736172742E630000704700008307FF22D3
:10107000DB0E9A408907090E994000280BDA000719
:10108000000F0838830808489B001818C369934369
:101090000B43C3617047830804489B001B18186802
:1010A000904308431860704700ED00E000E400E062
:1010B000704700001CB50020184E00906D4601904E
:1010C000684600F0F3FE012824D10A2000F07EFCDF
:1010D00001A800F0EBFE01281CD1032201A96846FB
:1010E000FFF775F8002815D16846837842780178B3
:1010F0000BA000F0F3F90024285D002807D0F06869
:10110000002804D0291900230A2201F002F9641CE6
:10111000032CF1DB012000F059FCD1E70000002096
:101120004765742074686520616C6C206B6579205C
:1011300076616C756520253032582C253032582C5C
:101140002530325800000000012000F03FFCFBE792
:10115000012000F03BFCFBE710B500F04AFC10BD9D
:1011600070B594B000241020099402250490052045
:1011700001260095C00403960A9008950B946846D2
:10118000FFF736FB002800D0FEE707200C900E94F6
:1011900001210D950F940CA8FFF726FA002800D026
:1011A000FEE710A810961294FFF7AAF9002800D0C5
:1011B000FEE7FFF7CBFA7D21C900FEF7CFFFFFF76F
:1011C00015FD0420FFF706FD03210022081FFFF78D
:1011D00093F914B070BD0000134801680122114357
:1011E00001604168114A114041600168104A114094
:1011F00001600168012292049143016041683F222D
:10120000120491434160C16A09090901C162016B7D
:10121000FF22143291430163416B49084900416345
:101220000021816070470000001002400CB8FF08E8
:10123000FFFFF6FE10B50248FFF719FD10BD0000D4
:1012400054010020F0B502681A4B1B4C984201D0A3
:10125000A04203D17025AA434D682A43174D184E6A
:10126000184F98420AD0A04208D0174CA04205D08F
:10127000A84203D0B04201D0B84205D1144603229F
:1012800012029443CA6822438024A2434C69224339
:1012900002608A68C2620A688262984205D0A842E7
:1012A00003D0B04201D0B84201D1096901630121E4
:1012B0004161F0BD002C01400004004000400140AD
:1012C00000440140004801400020004010B5818CDE
:1012D000C90707D001684A6801235B049A43836AFF
:1012E0001A434A60818C890707D501684A6801233F
:1012F0001B049A43C36A1A434A60818C490707D585
:1013000001684A6801239B049A43036B1A434A60AD
:10131000818C090707D501684A680123DB039A43DA
:10132000436B1A434A60818CC90607D502689168ED
:1013300001231B039943836B19439160818C8906B8
:1013400007D501688A6801235B039A43C36B1A437C
:101350008A60818C490612D503685A680121090503
:10136000046C8A4322435A60026C8A4207D10268A5
:10137000516803235B059943436C19435160818C89
:10138000090607D501684A680123DB04806C9A438B
:1013900002434A6010BD0021C166202260304272C3
:1013A0008272017208467047F8B504462369A26844
:1013B000E5691A43636910202B43002125681A430D
:1013C0002B680E463E4F3B4013432B6023685A6800
:1013D00003252D03AA43E5682A435A60236AA269BC
:1013E00025681A43AB680B273F02BB431343AB602E
:1013F000344A2568954210D1334A126B9207920FF6
:101400000ED0012A05D0022A05D0032A09D10220D4
:1014100007E0042005E0082003E02C4A954200D1B3
:1014200000200122E369D203934224D100280CD08A
:1014300002280DD0042813D0082817D001260A0945
:1014400012010807400F10432FE0FFF785F909E06C
:1014500061681F4A48088018FEF780FE81B2EEE7F7
:10146000FFF78AF9616840004A08F4E761680122E1
:1014700048081204EFE7002808D0022809D0042801
:101480000BD0082814D001263046F8BDFFF764F9C8
:1014900005E061680F4A48080CE0FFF76DF96168E4
:1014A0004A088018FEF75AFE80B22168C860EBE750
:1014B000616848088018FEF751FE80B2E860E3E7F3
:1014C000F369FFFF00380140001002400044004073
:1014D0000024F40000127A00FEE700000FB410B5FB
:1014E00003A9044B044A029800F018F810BC08BC89
:1014F00004B01847911900087000002002E008C8E5
:10150000121F08C1002AFAD170477047002001E07D
:1015100001C1121F002AFBD170470000FFB591B036
:101520000F460546002606E025280AD0149A13998E
:1015300090476D1C761C28780028F5D1304615B0F0
:10154000F0BD002400940121F34A029400E004431A
:101550006D1C2B780846203B98401042F7D1287824
:101560002A280ED0022128780246303A092A15D8B6
:10157000009A0A235A43303A80180C436D1C00909D
:10158000F1E701CF0090002805DA01204003044371
:10159000009840420090022004436D1C28782E28B9
:1015A00015D10420044368786D1C2A280AD101CF84
:1015B0006D1C02900BE002990A2251433039401809
:1015C0006D1C02902878014630390929F3D9287812
:1015D0006C2810D006DC4C281AD068280ED06A2857
:1015E00017D104E0742813D07A2812D110E001201A
:1015F000400504430CE00121090501E00321090530
:101600000C436978814203D10120000524186D1C28
:101610006D1C287803906E281ED00CDC632831D016
:1016200004DC00288AD0582811D1B2E064287BD08D
:1016300069280CD178E073282DD004DC6F2870D095
:10164000702804D1A7E075286CD078286BD0149A44
:1016500013999047761C62E06002400F022807D081
:1016600003280AD0042838680AD006603F1D56E0D7
:101670003868F11706604160F8E738680680F5E7DA
:101680000670F3E73878694608740020487404A8A7
:101690000390012003E0386803900020C0433F1D01
:1016A00061070FD5002101E00199491C029A0191BF
:1016B000914213DA8142F7DB019A0399895C002990
:1016C000F2D10BE0002101E00199491C0191814216
:1016D000FADB019A0399895C0029F5D101990098F8
:1016E000139A401A00902146149B00F03BF901998F
:1016F0008019461807E0039803990078491C039164
:10170000149A139990470198401E0190401CF2D101
:101710002146149B139A009800F014F986196D1C49
:1017200009E741E033E034E00A200021049005910C
:101730006002410F022905D001CFC2179446032948
:1017400005D007E0FF1DFF08FF0003CF06E000B251
:10175000C2179446042902D140B2C1178C46002218
:101760006146944506DA0A460021404291418C4682
:101770002D2102E0210504D52B216A461176012195
:1017800003E0E10701D02021F7E7019154E00A20AE
:101790000BE0102009E010200490002104200443F5
:1017A00008200591029003E0082000210591049093
:1017B0006002410F022905D001CF0022944603297F
:1017C00006D006E0FF1DFF08FF0003CF8C4603E0B4
:1017D00080B2042900D1C0B20021019121072BD58C
:1017E0000399702906D0049A1021059B4A401A4398
:1017F00005D00EE040216A461176012108E06146DD
:10180000014306D030216A461176039951760221B0
:101810000191049A0821059B4A401A430CD1614664
:10182000014301D1610707D530216A4611760121B4
:1018300001910299491E02910399582904D037A1B8
:1018400003910FA90F910DE039A1F9E76146059BBE
:10185000049AFEF7C9FC039B8C469B5C0F9A521EB0
:101860000F92137061460143F0D10F9807A9081A2F
:1018700020300390600704D50120000484430298BF
:1018800001E0012002900399884201DD401A00E046
:10189000002041180290019809180098401A009001
:1018A000E00306D42146149B139A009800F05AF8DE
:1018B00086190020049008E006A9085C149A139980
:1018C00090470498401C761C049001998842F3DBF1
:1018D000E0030CD52146149B139A009800F042F8BF
:1018E000861904E0149A302013999047761C0299C7
:1018F000481E02900029F5DC08E00F980F99007847
:10190000491C0F91149A13999047761C0399481E0D
:1019100003900029F1DCFBE6092801003031323365
:10192000343536373839616263646566000000001B
:101930003031323334353637383941424344454605
:1019400000000000F8B5044600251E46174688042E
:1019500004D405E039462020B0476D1C641EF9D53B
:101960002846F8BDFFB50446002581B01E46C803D1
:1019700001D5302700E02027880404D505E038464B
:101980000399B0476D1C641EF9D5284605B0F0BD1B
:1019900038B504466846047069460320ABBE20464D
:1019A00038BDFEF731FDFFF7DBFBFFF7BDFAFFF7B0
:1019B0000DFBFFF731FBFFF783FA00F00FF8FEE7AE
:1019C00001460020842900D0C81C704710B50028AB
:1019D00000D1012000F088FB002010BD10B500F000
:1019E000BFFB002010BD10B503C8002200F03CFC76
:1019F00010BD10B500F06CFD012801D000F022FCF4
:101A000010BD3EB5044608200D46205EFFF7D8FF06
:101A100002A901910090208A2B4682B22168606859
:101A200000F02EFD012801D000203EBD02983EBDF1
:101A3000F8B5134C0F46E66805462068001D00F017
:101A4000B5FA681C07D1002F05D021680D48091D83
:101A500000F0E4FAF8BD2068751945602168B542C8
:101A600004D2A06B091D00F0C1FAF8BD606B091D1E
:101A700000F0BCFAA06A8542F7D2A562F8BD00006A
:101A800034000020700E0020F8B5054600F0D2FAB0
:101A9000294CA068401CA0602068284F002803D073
:101AA0006069002827D02CE02560A068012828D193
:101AB000002614207043C01900F08AFA761C072E05
:101AC000F7D31E488C3000F083FA1C48A03000F099
:101AD0007FFA1A48B43000F07BFA1848C83000F09A
:101AE00077FA1648DC3000F073FA14488C306063E3
:101AF0001430A06305E02068E96AC06A884200D813
:101B00002560606A401C6062E86A2169884200D9E9
:101B1000206114214843C019291D00F07FFA00F00C
:101B200095FA6069002806D02068E96AC06A884290
:101B300001D200F0CDFAF8BD34000020940D002051
:101B400070B5114E114C18E000F030FB30680028E1
:101B500017D000F091FD00F06DFAF068C568281DFF
:101B600000F024FAA068401EA0606068401E60601B
:101B700000F06CFA284600F043F860680028E3D1D2
:101B800070BD00F079FDF8E75C0E00203400002005
:101B9000F8B5856B174604460026026C002A11D062
:101BA000002F19D0E068FEF700FBE168206C091AED
:101BB000E1602268914202D26168081AE060022F57
:101BC00017D019E02068002816D1606800F0EEFCFC
:101BD0000646002060600FE0A068FEF7E6FA216C80
:101BE000A0684018A0606168884205D32068A060A2
:101BF00002E0002D00D06D1E6D1CA5633046F8BDBF
:101C000010B50446006B00F02FFA204600F02CFAC5
:101C100010BD000003210E488902420705D0C01DF7
:101C2000C0080B4AC000821A891A0A4A00234118C8
:101C300009C20839C908C900183A11604B600B6025
:101C40000B1A0AC093600120C0075360D060704730
:101C50009401002028000020044CFFF771FF206849
:101C60000128FAD900F034FAF7E70000940D0020BB
:101C7000FFB581B00C9C9000236B001F1818C6089C
:101C80000A9DF600700701D072B6FEE723180A5CC1
:101C900020331A750A5C002A02D0401C1028F5D3A4
:101CA0002046403000270090C770072D00D306253E
:101CB000E562A764201D656400F095F920461830A0
:101CC00000F091F924610720401B6462A061E76481
:101CD000009807743046049A019900F0D7F8206004
:101CE0000B98002800D0046005B0F0BD30B5114954
:101CF00000E011460A688242FBD34B685C188442BC
:101D000003D1406818184860084643681C1894427C
:101D100009D1084C103C2468A24209D052689A1894
:101D200042600A6812680260814200D0086030BDDB
:101D30000460F9E7280000200648416B0968002983
:101D400005D0416BC968C968496881627047002144
:101D5000C943FAE73400002003480068401C72B60B
:101D600000D0FEE7FEE7000030000020F8B5044692
:101D700000F060F9254640350526AE572746243742
:101D80000BE0606A00280AD0384600F043FC0028C7
:101D900001D000F0C1F9761E76B2002EF1DC0027EA
:101DA000FF436F7100F052F900F044F90426AE577A
:101DB0002046103000900BE0206900280AD00098DF
:101DC00000F028FC002801D000F0A6F9761E76B2BB
:101DD000002EF1DC2F7100F039F9F8BDF8B5054699
:101DE000002700F0E3F9284E3068002801D1FFF702
:101DF00011FFF06805423FD1002D3DD0083568073E
:101E000008D06807400F0821081A4519680701D053
:101E100072B6FEE7002D2FD0706885422CD81A4884
:101E2000103001460C6801E020460C466168A9426A
:101E300002D221680029F7D131688C421CD0076892
:101E40002168016060680837411B102908D96019B2
:101E5000420701D072B6FEE741606560FFF746FFBA
:101E600061687068401A7060B268904200D2B060D9
:101E7000F0680143002003C400F0FEFB780701D0A6
:101E800072B6FEE73846F8BD1800002010B50124F0
:101E9000031F24061C601B1F1960191F024B0B60D7
:101EA000143940380A6010BD591D000870B5092565
:101EB0000446ED06012210212846FEF790FA002282
:101EC00020212846FEF78BFA002240212846FEF703
:101ED00086FA00F047F821780026084320700007B2
:101EE000002802D01020207000E02670002210216F
:101EF0002846FEF774FA012220212846FEF76FFAE1
:101F0000002240212846FEF76AFA00F02BF861789B
:101F100008436070000702D02020607000E0667007
:101F2000002210212846FEF75AFA002220212846D6
:101F3000FEF755FA012240212846FEF750FA00F03C
:101F400011F8A1780843A070000702D04020A070CB
:101F500000E0A670207861780843A178084300D09B
:101F6000012070BD70B5092000248021C006FEF755
:101F700031FA012800D101240B4D01212846FEF73A
:101F800029FA012800D1022402212846FEF722FA6C
:101F9000012800D1042404212846FEF71BFA012859
:101FA00000D10824204670BD0004004843688268C0
:101FB00001699A60836842685A604A68824201D126
:101FC00082684A60002202610868401E086070470B
:101FD0000146083100224160D243C1608260016144
:101FE00000210160704700210161704730B50B6826
:101FF0005A1C02D00246083202E0026904E022467E
:10200000546825689D42FAD953684B6099608A608C
:10201000516008610168491C016030BD42684A6036
:1020200093688B6093685960916008610168491CEE
:102030000160704772B604480168491C0160BFF333
:102040004F8FBFF36F8F704730000020054908683D
:10205000002804D0401E086000D162B6704772B6F6
:10206000FEE700003000002070B500281AD00446BA
:102070000D4D083C6068E968084201D172B6FEE780
:102080002268002A01D072B6FEE78843606000F043
:102090008DF860686968401868602046FFF726FE82
:1020A00000F0EAFA70BD00001800002010B50648E4
:1020B0007D21C9000068FEF751F80449401E4861BF
:1020C0000720086110BD00001400002000E000E0BF
:1020D0000120044900074860BFF34F8FBFF36F8FA3
:1020E0007047000000ED00E010B502000FD0094875
:1020F000006B002801D072B6FEE700F057F800210F
:102100001046FFF795FC00F0B7FA002801D1FFF761
:10211000DFFF10BD3400002001490120C861704775
:102120003400002010B50C46002809D00549096884
:102130001831FFF75BFF01212046FFF779FC10BD46
:1021400072B6FEE734000020002805D003490A6A71
:102150000260C9684160704772B6FEE73400002033
:102160001CB50E4800240190234640220CA1009487
:102170000D4800F085F9012803D0401C0CD172B63F
:10218000FEE772B600210548C9432C38816201215F
:102190004161C46000F03EF81CBD000060000020FA
:1021A00049444C4500000000591C00080248016BDE
:1021B000491C0163704700003400002010B513482B
:1021C000016B002902D00121C16110BD0021C16154
:1021D00001690F4A02E0002915D0491E14234B4320
:1021E000D358002BF7D014234B439A185368144646
:1021F0005B6808345360A34201D15B685360DA68BE
:102200000260016110BD72B6FEE7000034000020DC
:10221000940D002010B50948016AFF2212041143F1
:102220000162016A120211430162FFF73FFF044994
:1022300000200860FDF748FF002010BD00ED00E021
:102240003000002010B5FDF753FF044600F050F9B0
:10225000002803D001200349000748602046FDF70D
:102260004BFF10BD00ED00E070B50E46050014D028
:10227000002E14D070434830FFF7B0FD04000AD0A0
:10228000214648312046002E0BD001600664012112
:10229000C56300F008F8204670BD72B6FEE7002066
:1022A000E9E70060F2E770B50D46040025D0FFF7BE
:1022B000C1FE216CE06B4843216841186160002138
:1022C000A1632168A160E06B216C401E4843216836
:1022D0004118E1600021C94320464030017141713D
:1022E0003038002D0BD0FFF773FE20462430FFF767
:1022F0006FFEFFF7ABFE012070BD72B6FEE72169ED
:102300000029F6D000F086F90028F2D0FFF7E0FEB1
:10231000EFE7FFB5002683B01D46040003D0049804
:10232000002802D006E072B6FEE7206C002801D03B
:1023300072B6FEE7022D04D1E06B012801D072B61F
:10234000FEE700F0C5F80027002804D10598002812
:1023500001D072B6FEE7FFF76DFEA06BE16B88421D
:1023600007D3022D05D00598002817D0002E18D0CD
:102370001BE02A4620460499FFF70AFC616A0029FF
:1023800003D02046243000F045F9002801D0FFF7A3
:102390009FFEFFF75BFE012007B0F0BDFFF756FE82
:1023A00022E06846FFF7D0FE0126FFF74FFEFFF759
:1023B000FDFEFFF73FFE2046403004214156491CF8
:1023C00000D1077105214156491C00D14771FFF723
:1023D0003DFE05A9684600F029F8002806D02046F1
:1023E000FFF7C4FC00F048F90020D5E7FFF722FE14
:1023F000A06BE16B884210D1FFF728FE2046103019
:102400000599FFF78FFE2046FFF7B0FC00F034F986
:102410000028A0D1FFF75CFE9DE7FFF717FE2046DE
:10242000FFF7A4FC00F028F995E7000070B50D4611
:1024300004001AD0002D1AD0FFF7FCFD0F4AD16816
:102440002868431C0FD02368126A934202D0626846
:102450008A420ED96268891A81420AD2401A2860DB
:102460002046FFF771FE002404E072B6FEE772B664
:10247000FEE70124FFF7EAFD204670BD340000208E
:10248000FFB585B0164690000F9FFFF7A7FC05002B
:102490001AD05420FFF7A2FC040012D025630021BB
:1024A0000E9803910197009002943246089B06997A
:1024B0000598FFF7DDFB2046FFF7E6FA012009B09B
:1024C000F0BD2846FFF7D0FD0020C043F7E700002D
:1024D00006484169002904D0006B002803D0002081
:1024E0007047012070470220704700003400002030
:1024F000F8B52C4C0027206B002808D0A069401CA0
:10250000A061E069002800D001273846F8BDE668E0
:10251000761CE6600ED1606B0068002801D072B6B0
:10252000FEE7606BA16B6163A063206A401C2062C0
:10253000FFF702FCA06A86420AD3606B006800289D
:1025400010D0606BC068C568686886420DD2A06212
:1025500020681421C06A4843134908580128D0D97B
:102560000127CEE70020C043F1E7281DFFF71EFD3D
:10257000A86A002803D028461830FFF717FDE86A3C
:102580002169884200D92061142148430649401836
:10259000291DFFF743FDE86A2168C96A8842CCD348
:1025A0000127CAE734000020940D002070B50021F7
:1025B0000446002828D0154D2868844201D072B600
:1025C000FEE7A06C002808D0401EA064636CE26A9D
:1025D0009A4219D0002802D016E072B6FEE7201DFC
:1025E000FFF7E4FC606C0721E062081AA061E06A72
:1025F0002969884200D928611421484304494018B8
:10260000211DFFF70BFD0121084670BD340000209D
:10261000940D002070B5C068C468002C0BD0204613
:1026200018300646FFF7C2FC114D286B002804D075
:10263000314610480FE072B6FEE7201DFFF7B6FCEA
:10264000E06A2969884200D9286114214843094970
:10265000B4394018211DFFF7E1FCE06A2968C96A16
:10266000884202D90120E86170BD002070BD0000E1
:1026700034000020480E0020F8B5284C0025206BBF
:102680002E46002808D0FFF7D5FC206B401E2063A3
:10269000206B002802D03DE072B6FEE7A168204F13
:1026A00000291DD136E0F868C56828461830FFF7C4
:1026B0007DFC281DFFF77AFCE86A2169884200D971
:1026C0002061142148431649B4394018291DFFF7E9
:1026D000A5FCE86A2168C96A884201D30120E0614B
:1026E00038680028DFD1002D01D0FFF725FBA56950
:1026F000002D09D00127FFF7FBFE002800D0E7617D
:102700006D1EF8D10020A061E069002802D00126EA
:10271000FFF7DEFCFFF79AFC3046F8BD34000020DE
:10272000480E00200500000004000000802700087B
:1027300049110008FDFF00000000000040000000FB
:102740008C27000851110008FDFF00000000000068
:102750004000000098270008B5100008FDFF0000A9
:102760000000000040000000000000000000000029
:102770000102030406070809000000000102030427
:1027800052433532325461736B0000005253343877
:10279000355461736B0000004B65795461736B00B5
:1027A000C02700080000002074000000FC1400088E
:1027B0003428000874000020141200000C150008D2
:1027C0000000000000000000000000000000000009
:1027D0000000000000127A0000000000000000006D
:1027E00000000000000000000000000000000000E9
:1027F000AAAAAAAA00000000000000000000000031
:1028000000000000000000000000000000000000C8
:1028100000000000000000000000000000000000B8
:1028200000000000000000000000000000000000A8
:0428300000000000A4
:04000005080000B53A
:00000001FF
